{
  "contractName": "TestRedshiftVerifierUnifiedAddition",
  "abi": [
    {
      "inputs": [
        {
          "internalType": "uint256",
          "name": "modulus",
          "type": "uint256"
        },
        {
          "internalType": "uint256",
          "name": "r",
          "type": "uint256"
        },
        {
          "internalType": "uint256",
          "name": "max_degree",
          "type": "uint256"
        },
        {
          "internalType": "uint256",
          "name": "lambda",
          "type": "uint256"
        },
        {
          "internalType": "uint256",
          "name": "m",
          "type": "uint256"
        },
        {
          "internalType": "uint256",
          "name": "rows_amount",
          "type": "uint256"
        },
        {
          "internalType": "uint256",
          "name": "omega",
          "type": "uint256"
        },
        {
          "internalType": "uint256",
          "name": "columns_number",
          "type": "uint256"
        }
      ],
      "name": "set_initial_params",
      "outputs": [],
      "stateMutability": "nonpayable",
      "type": "function"
    },
    {
      "inputs": [
        {
          "internalType": "uint256[]",
          "name": "U",
          "type": "uint256[]"
        }
      ],
      "name": "set_U",
      "outputs": [],
      "stateMutability": "nonpayable",
      "type": "function"
    },
    {
      "inputs": [
        {
          "internalType": "uint256[]",
          "name": "V",
          "type": "uint256[]"
        }
      ],
      "name": "set_V",
      "outputs": [],
      "stateMutability": "nonpayable",
      "type": "function"
    },
    {
      "inputs": [
        {
          "internalType": "uint256[]",
          "name": "D_omegas",
          "type": "uint256[]"
        }
      ],
      "name": "set_D_omegas",
      "outputs": [],
      "stateMutability": "nonpayable",
      "type": "function"
    },
    {
      "inputs": [
        {
          "internalType": "uint256[]",
          "name": "q",
          "type": "uint256[]"
        }
      ],
      "name": "set_q",
      "outputs": [],
      "stateMutability": "nonpayable",
      "type": "function"
    },
    {
      "inputs": [
        {
          "internalType": "int256[]",
          "name": "rotations",
          "type": "int256[]"
        },
        {
          "internalType": "uint256",
          "name": "i",
          "type": "uint256"
        }
      ],
      "name": "set_column_rotations",
      "outputs": [],
      "stateMutability": "nonpayable",
      "type": "function"
    },
    {
      "inputs": [
        {
          "internalType": "bytes",
          "name": "blob",
          "type": "bytes"
        }
      ],
      "name": "verify",
      "outputs": [],
      "stateMutability": "nonpayable",
      "type": "function"
    }
  ],
  "bytecode": "0x608060405234801561001057600080fd5b50613d2c806100206000396000f3fe608060405234801561001057600080fd5b506004361061007d5760003560e01c8063962354851161005b57806396235485146100bd578063ab5ecfbb146100d0578063d51b539c146100e3578063e951e5d4146100f657600080fd5b80633370e037146100825780636479520f146100975780638e760afe146100aa575b600080fd5b6100956100903660046138f6565b610109565b005b6100956100a5366004613938565b61011a565b6100956100b8366004613984565b61014f565b6100956100cb3660046138f6565b61055e565b6100956100de3660046138f6565b61056a565b6100956100f13660046138f6565b610576565b6100956101043660046139f6565b610582565b6101156008838361377f565b505050565b8282600b600201838154811061013257610132613a4b565b90600052602060002001919061014992919061377f565b50505050565b60008061019184848080601f0160208091040260200160405190810160405280939291908181526020018383808284376000920182905250925061061b915050565b90925090508281146102105760405162461bcd60e51b815260206004820152602660248201527f50726f6f66206c656e6774682077617320646574656374656420696e636f727260448201527f6563746c7921000000000000000000000000000000000000000000000000000060648201526084015b60405180910390fd5b604080516020808201808452600080845284518084018652908152835190912081528351601f880183900483028101830190945286845291926104f7918890889081908401838280828437600081840152601f19601f820116905080830192505050505050506000838760006040518060a001604052908160008201548152602001600182015481526020016002820154815260200160038201548152602001600482016040518060e00160405290816000820154815260200160018201548152602001600282015481526020016003820180548060200260200160405190810160405280929190818152602001828054801561032c57602002820191906000526020600020905b815481526020019060010190808311610318575b505050505081526020016004820180548060200260200160405190810160405280929190818152602001828054801561038457602002820191906000526020600020905b815481526020019060010190808311610370575b50505050508152602001600582018054806020026020016040519081016040528092919081815260200182805480156103dc57602002820191906000526020600020905b8154815260200190600101908083116103c8575b505050505081526020016006820180548060200260200160405190810160405280929190818152602001828054801561043457602002820191906000526020600020905b815481526020019060010190808311610420575b5050509190925250505090525060408051606081018252600b80548252600c54602080840191909152600d8054855181840281018401875281815294959394938601939260009084015b828210156104ea576000848152602090819020830180546040805182850281018501909152818152928301828280156104d657602002820191906000526020600020905b8154815260200190600101908083116104c2575b50505050508152602001906001019061047e565b5050505081525050610778565b600e805460ff1916911515918217905560ff166105565760405162461bcd60e51b815260206004820152601560248201527f50726f6f66206973206e6f7420636f72726563742100000000000000000000006044820152606401610207565b505050505050565b610115600a838361377f565b6101156007838361377f565b6101156009838361377f565b6000889055600185905560028790556003849055600488905560058790556006869055600b839055600c8290558067ffffffffffffffff8111156105c8576105c8613a61565b6040519080825280602002602001820160405280156105fb57816020015b60608152602001906001900390816105e65790505b50805161061091600d916020909101906137ca565b505050505050505050565b61067f6040518061018001604052806000815260200160008152602001600081526020016000815260200160008152602001600081526020016000815260200160008152602001600081526020016000815260200160008152602001600081525090565b600061068b84846116a2565b8083526106999085906116d0565b602083018190526106ab9085906116d0565b604083018190526106bd90859061170f565b606083018190526106cf90859061171c565b608083018190526106e190859061171c565b60a083018190526106f390859061171c565b60c0830181905261070590859061171c565b60e0830181905261071790859061171c565b610100830181905261072a90859061171c565b610120830181905261073d90859061171c565b610140830181905261075090859061171c565b6101608301819052839061076590869061171c565b61076f9190613a8d565b90509250929050565b60006107f5604051806101e0016040528060008152602001600081526020016000815260200160608152602001600081526020016060815260200160008152602001600081526020016060815260200160608152602001600081526020016000815260200160008152602001600081526020016000151581525090565b61080388866000015161175e565b6020830152815260005b815181101561085657610831878a6008856020015161082c9190613aa4565b611775565b61083f8983602001516118a9565b60208301528061084e81613abc565b91505061080d565b5061086b888660c00151016020015160c01c90565b8160000181815250506108d160405180610160016040528060008152602001600081526020016060815260200160608152602001606081526020016000815260200160008152602001600081526020016000815260200160008152602001600081525090565b815167ffffffffffffffff8111156108eb576108eb613a61565b604051908082528060200260200182016040528015610914578160200160208202803683370190505b506040820152606086015189016020015160c01c60005b8351811015610ac65760005b8660400151828151811061094d5761094d613a4b565b6020026020010151518110156109b6578660400151828151811061097357610973613a4b565b6020026020010151818151811061098c5761098c613a4b565b6020026020010151600014156109a457604085018190525b806109ae81613abc565b915050610937565b5081811015610a03576109dc8b6109d28d8b60600151856118c8565b866040015161190b565b836040015182815181106109f2576109f2613a4b565b602002602001018181525050610ab4565b610a188b896101000151016020015160c01c90565b610a229083613aa4565b811015610a48576109dc8b6109d28d8b61010001518686610a439190613a8d565b6118c8565b610a5d8b896101000151016020015160c01c90565b610a678383613a8d565b610a719190613a8d565b6101a08501819052610120890151610a91918d916109d2918391906118c8565b83604001518281518110610aa757610aa7613a4b565b6020026020010181815250505b80610abe81613abc565b91505061092b565b508551825260408701518a0160200151602083015260c0870151610af0908b016020015160c01c90565b67ffffffffffffffff811115610b0857610b08613a61565b604051908082528060200260200182016040528015610b31578160200160208202803683370190505b50606083015260c0870151610b4890600890613aa4565b602084015260005b826060015151811015610bae5760208401518b0160500183606001518281518110610b7d57610b7d613a4b565b602002602001018181525050610b978b8560200151611931565b602085015280610ba681613abc565b915050610b50565b50610bc38a8860e00151016020015160c01c90565b67ffffffffffffffff811115610bdb57610bdb613a61565b604051908082528060200260200182016040528015610c04578160200160208202803683370190505b50608083015260e0870151610c1b90600890613aa4565b602084015260005b826080015151811015610c815760208401518b0160500183608001518281518110610c5057610c50613a4b565b602002602001018181525050610c6a8b8560200151611931565b602085015280610c7981613abc565b915050610c23565b50610c9e8a60088960800151610c979190613aa4565b600061190b565b60a08301526080870151610cc1908b90610cba90600890613aa4565b600161190b565b60c08301528551610cd3908990611984565b60e08301528551610ce5908990611984565b610100830152610cfb888b61082c60088d613aa4565b610d118a6008896101600151610c979190613aa4565b82610140018181525050610d3a8a610c978c60088b6101600151610d359190613aa4565b611931565b610120830152610d49826119c2565b606084015260408051600b80825261018082019092526000916020820161016080368337505060006101a0870152506060890151909150610d8c90600890613aa4565b602085015260005b600b811015610eb15786604001518181518110610db357610db3613a4b565b602002602001015151600114610dc857600080fd5b60005b87604001518281518110610de157610de1613a4b565b602002602001015151811015610e8b5787604001518281518110610e0757610e07613a4b565b60200260200101518181518110610e2057610e20613a4b565b6020026020010151600014610e3457600080fd5b610e438d876020015183611b41565b83876101a0015181518110610e5a57610e5a613a4b565b60209081029190910101526101a08601805190610e7682613abc565b90525080610e8381613abc565b915050610dcb565b50610e9a8c8660200151611931565b602086015280610ea981613abc565b915050610d94565b50610efa60405180610100016040528060008152602001600081526020016000815260200160608152602001600081526020016000815260200160608152602001606081525090565b87518152600160208201528751610f12908b90611984565b6040828101919091528051600180825281830190925290602080830190803683375050506060820152610140890151610f5a908d90610f5390600890613aa4565b6000611b41565b8160600151600081518110610f7157610f71613a4b565b602002602001018181525050610f878282611b5e565b6080860152604080516009808252610140820190925290602082016101208036833750505060a086018190528851610fc0918c91611d70565b610fce8c8a6020015161175e565b6020870152855260005b855181101561101c57610ff78b8e6008896020015161082c9190613aa4565b6110058d87602001516118a9565b60208701528061101481613abc565b915050610fd8565b5061102b8a8960000151611984565b60c0860181905260408a01518d01602001511461105057600095505050505050611698565b61105e8c8a6060015161175e565b6020870152855260005b85518110156111f8578760400151818151811061108757611087613a4b565b60200260200101515167ffffffffffffffff8111156110a8576110a8613a61565b6040519080825280602002602001820160405280156110d1578160200160208202803683370190505b5061010087015260005b886040015182815181106110f1576110f1613a4b565b60200260200101515181101561119e57895160408a015180518291908590811061111d5761111d613a4b565b6020026020010151838151811061113657611136613a4b565b60200260200101516111489190613ad7565b6111529190613b45565b60e0880181905260208a01518b5161116a9290611dec565b60e088018190528a5160c0890151909190098160200260206101008a0151010152808061119690613abc565b9150506110db565b506111b58d87602001518861010001518e8d611e30565b5015156101c087018190526111d35760009650505050505050611698565b6111e18d8760200151611931565b6020870152806111f081613abc565b915050611068565b506040805160028082526060820183529091602083019080368337505050610100860181905260c0860151815190919060009061123757611237613a4b565b6020026020010181815250508751602088015160c0870151096040610100870151015261126b8c8a608001518c8b8961212b565b61127d57600095505050505050611698565b6040805160018082528183019092529060208083019080368337505050610100860181905260c086015181519091906000906112bb576112bb613a4b565b6020026020010181815250506112d88c8a60a001518c8b8961212b565b6112ea57600095505050505050611698565b6112fb8c8a60c001518c8b8961212b565b61130d57600095505050505050611698565b61131e8c8a60e001518c8b8961212b565b61133057600095505050505050611698565b6113428c8a61010001518c8b8961212b565b61135457600095505050505050611698565b6113668c8a61012001518c8b8961212b565b61137857600095505050505050611698565b61138a8c8a61014001518c8b8961212b565b61139c57600095505050505050611698565b6113ae8c8a61016001518c8b8961212b565b6113c057600095505050505050611698565b6040805160098082526101408201909252906020820161012080368337505050610120860152606085015180516000906113fc576113fc613a4b565b602002602001015185610120015160008151811061141c5761141c613a4b565b602002602001018181525050846060015160018151811061143f5761143f613a4b565b602002602001015185610120015160018151811061145f5761145f613a4b565b602002602001018181525050846060015160028151811061148257611482613a4b565b60200260200101518561012001516002815181106114a2576114a2613a4b565b602090810291909101015260035b60088110156114ef57600086610120015182815181106114d2576114d2613a4b565b6020908102919091010152806114e781613abc565b9150506114b0565b50846080015185610120015160088151811061150d5761150d613a4b565b6020908102919091010152600061014086018190525b600981101561156d57885189518260200260206101208a015101015183602002602060a08b015101015109610140880151086101408701528061156581613abc565b915050611523565b50600061016086015260a0890151611586908d9061175e565b6020870152855260005b8551811015611631576115a98d8760200151600061190b565b8660400181815250506115e18660c00151828b608001516040015160016115d09190613aa4565b6115da9190613b59565b8b51611dec565b60e0870181905289516040880151909190096040870152885160408701516101608801510861016087015261161a8d8760200151611931565b60208701528061162981613abc565b915050611590565b5060c085015187518951611646929190611dec565b61018086018190528851906000198201900861018086015287516101608601516101808701510961018086018190526101408601511461168e57600095505050505050611698565b6001955050505050505b9695505050505050565b60006116af600883613aa4565b6116ba906020613aa4565b905082518111156116ca57600080fd5b92915050565b60006116dd600883613aa4565b905082518111156116ed57600080fd5b8160208401015160c01c6020600801028101905082518111156116ca57600080fd5b60006116ba826020613aa4565b60008061172984846121ad565b9250905060005b818110156117565761174285846121db565b92508061174e81613abc565b915050611730565b505092915050565b8181016020015160c01c600061076f600884613aa4565b815181106117eb5760405162461bcd60e51b815260206004820152603560248201527f7570646174655f7472616e7363726970745f6233325f62795f6f66667365743a60448201527f206f6666736574203c20626c6f622e6c656e67746800000000000000000000006064820152608401610207565b8082516117f89190613a8d565b6020111561186e5760405162461bcd60e51b815260206004820152603b60248201527f7570646174655f7472616e7363726970745f6233325f62795f6f66667365743a60448201527f203332203c3d20626c6f622e6c656e677468202d206f666673657400000000006064820152608401610207565b818101602001516101498482815160408051602080820193909352808201939093528051808403820181526060909301905281519101209052565b60006118b6600883613aa4565b6118c1906020613aa4565b9392505050565b6000806118d5858561175e565b9250905060005b83811015611902576118ee8684611931565b9250806118fa81613abc565b9150506118dc565b50509392505050565b60006119298461191c856028613aa4565b6020850201016028015190565b949350505050565b600061193d83836118a9565b9050611949838261222e565b90506000611957848361175e565b9250905060005b81811015611756576119708584612251565b92508061197c81613abc565b91505061195e565b815160405160009161199c9160200190815260200190565b60408051601f1981840301815291905280516020909101208084526118c1908390613b45565b606081604001515182606001515110156119f85760405162461bcd60e51b81526020600482015260006024820152604401610207565b8160400151518260800151511015611a2c5760405162461bcd60e51b81526020600482015260006024820152604401610207565b604080516003808252608082019092529060208201606080368337019050509050815160018060205b604086015151602002602001811015611abe57838485610100890151878560608c015101515160e08c015109088360408a015101510884099250838485610100890151878560808c015101515160e08c015109088360408a015101510883099150602001611a55565b50602085015160018114611ad85760006020860152611ae9565b8360a0870151850360010860208601525b508283848460a0890151098503858460c08a01510908848561012089015187036101408a0151880308600108096040850152505060a08301518190819080820390829080090861014085015109606083015250919050565b600061192984611b52856028613aa4565b60208502010160280190565b6000600b83511015611b6f57600080fd5b60018260600151511015611b8257600080fd5b600090508151602083015160408401518283602088015151850360608901515108610100880151510983848483098608945083828409925083846101008901515186036001088503856101608a0151518760208c015151890360608d01515108090890508384848309860894508382840992508384858660408b015151880360808c015151088703876101208c0151518960208e0151518b0360608f015151080908866101008b0151518803600108098586878860208d01515160208e01515109600309888960408e0151516101208f01515109600209086101008b01515109089050838484830986089450838284099250838460a0890151518660608b01515160208c015151080861012089015151908603908690800908905083848483098608945083828409925083846040890151518603868760a08c015151890360208d015151086101208c0151510908850360c089015151089050838484830986089450838284099250838460e08901515186036101008a015151088560408a015151870360808b015151080990508384848309860894508382840992508360e0880151518503856101408a0151518760408c015151890360808d015151080908905083848483098608945050828183099150508060208501525080602060608501510151518309949350505050565b81511561011557825160005b8351811015611de45760408051602081018490520160408051601f1981840301815291905280516020909101209150611db58383613b45565b848281518110611dc757611dc7613a4b565b602090810291909101015280611ddc81613abc565b915050611d7c565b508352505050565b600060405160208152602080820152602060408201528460608201528360808201528260a082015260208160c08360055afa611e2757600080fd5b51949350505050565b845160009081908610611e4257600080fd5b6000868851611e519190613a8d565b9050611e5f60286008613aa4565b915080821115611e6e57600080fd5b6040805180820190915260008152606060208201526048898901015160c01c808252602002929092019181611ea4846008613aa4565b1115611eaf57600080fd5b82880160208a01015160c01c60208601518114611ecb57600080fd5b5080516008939093019267ffffffffffffffff811115611eed57611eed613a61565b604051908082528060200260200182016040528015611f16578160200160208202803683370190505b506020808301829052016030890160005b8351602002811015611f49576020828d01810151828501529182019101611f27565b505050611f5f8782602001518760000151612298565b608086015160a00152604080516001808252818301909252906020808301908036833701905050856080015160c001819052506001856080015160c00151600081518110611faf57611faf613a4b565b602090810291909101015260408051600280825260608201909252600091816020016020820280368337019050509050600181600181518110611ff457611ff4613a4b565b60200260200101818152505060005b88518110156120865788818151811061201e5761201e613a4b565b602002602001015187600001516120359190613a8d565b8260008151811061204857612048613a4b565b60200260200101818152505061206b876080015160c0015183896000015161239d565b608088015160c001528061207e81613abc565b915050612003565b5060005b8660200151811015612118576000806120b28d6120a7898f613aa4565b8c8c60800151612477565b91509150816120f75760006120c684612a71565b906120e45760405162461bcd60e51b81526004016102079190613b78565b5060008097509750505050505050612121565b6121018188613aa4565b96505050808061211090613abc565b91505061208a565b50600194505050505b9550959350505050565b6000612137868661175e565b6020840152825260005b825181101561219e576121608784602001518561010001518888611e30565b5015156101c084018190526121795760009150506121a4565b612187878460200151611931565b60208401528061219681613abc565b915050612141565b50600190505b95945050505050565b6000806121bb600884613aa4565b905083518111156121cb57600080fd5b929091016020015160c01c929050565b60006121e783836116a2565b90506121f38382612bce565b9050600061220184836121ad565b9250905060005b818110156117565761221a8584612c0a565b92508061222681613abc565b915050612208565b600061223b600883613aa4565b9290910160209081015160c01c02909101919050565b600061225d838361222e565b9050600061226b848361175e565b9250905060005b81811015611756576122848584612c51565b92508061229081613abc565b915050612272565b6060835160011480156122ac575082516001145b156123135760408051600180825281830190925260009160208083019080368337019050509050836000815181106122e6576122e6613a4b565b60200260200101518160008151811061230157612301613a4b565b602090810291909101015290506118c1565b83516002141561232f57612328848484612cbc565b90506118c1565b60405162461bcd60e51b815260206004820152602e60248201527f756e737570706f72746564206e756d626572206f6620706f696e747320666f7260448201527f20696e746572706f6c6174696f6e0000000000000000000000000000000000006064820152608401610207565b60608351835111156123ad579192915b60005b835181101561246f5760008186516123c89190613aa4565b67ffffffffffffffff8111156123e0576123e0613a61565b604051908082528060200260200182016040528015612409578160200160208202803683370190505b50905060005b865181101561244d5784602084026020880101516020830260208a01015109602084830102602084010152808061244590613abc565b91505061240f565b50612459838286612e1d565b925050808061246790613abc565b9150506123b0565b509392505050565b83516000908190851061248957600080fd5b6124d460405180610100016040528060008152602001600081526020016000801916815260200160008152602001600081526020016000815260200160008152602001606081525090565b8587516124e19190613a8d565b8152604080516002808252606082018352909160208301908036833750505060e08201526060840151805161253a919060009061252057612520613a4b565b6020026020010151612533876008612f3e565b8651611dec565b608082015280516008111561254e57600080fd5b8560208801015160c01c80606083015280602002600801925050816008018151101561257957600080fd5b81860160208801015160c01c826008019250600060208601518214141561259f57600080fd5b5060005b84602001518110156127e5576125bd868660000151611984565b60c08301526080808601519083015186516125d9929190612fcf565b60a08301526000806125f48a6125ef878c613aa4565b613014565b915091508161260d576000809550955050505050612a68565b60005b6002811015612667576126348b612627888d613aa4565b868489608001518d6131a2565b8560e00151828151811061264a5761264a613a4b565b60209081029190910101528061265f81613abc565b915050612610565b506020858a018b01810151908501819052608085015188516126f191906126a490612693836002613b59565b61269d9190613b45565b8b51613270565b8760e001516000815181106126bb576126bb613a4b565b60200260200101518860e001516001815181106126da576126da613a4b565b60200260200101518960c001518d60000151613287565b14612706576000809550955050505050612a68565b600187602001516127179190613a8d565b8310156127ba5784890181018a0160480151604085810182905289518151602080820192909252808301939093528151808403830181526060909301909152815191012088526127a28a61276d60026020613b59565b6048612779898e613aa4565b6127839190613aa4565b61278e906008613aa4565b6127989190613aa4565b60208701516132a8565b509150816127ba576000809550955050505050612a68565b60a084015160808501526127ce8186613aa4565b9450505080806127dd90613abc565b9150506125a3565b50600184602001516129e8866040015160016128019190613aa4565b604080517ff8f9cbfae6cc78fbefe7cdc3a1793dfcf4f0e8bbd8cec470b6a28a7a5a3e1efd81527ff5ecf1b3e9debc68e1d9cfabc5997135bfb7a7a3938b7b606b5b4b3f2f1f0ffe60208201527ff6e4ed9ff2d6b458eadcdf97bd91692de2d4da8fd2d0ac50c6ae9a8272523616818301527fc8c0b887b0a8a4489c948c7f847c6125746c645c544c444038302820181008ff60608201527ff7cae577eec2a03cf3bad76fb589591debb2dd67e0aa9834bea6925f6a4a2e0e60808201527fe39ed557db96902cd38ed14fad815115c786af479b7e8324736353433727170760a08201527fc976c13bb96e881cb166a933a55e490d9d56952b8d4e801485467d236242260660c08201527f753a6d1b65325d0c552a4d1345224105391a310b29122104190a11030902010060e08201526101008082019092527f0100000000000000000000000000000000000000000000000000000000000000600170010000000000000000000000000000000068010000000000000000640100000000620100006010600460026000198c019081041790810417908104178881041790810417908104179081041790810417017e818283848586878898a8b8c8d8e8f929395969799a9b9d9e9faaeb6bedeeff0281900460ff039091015104600160ff1b909211020190565b6129f29190613a8d565b6129fd906002613cb1565b612a079190613a8d565b60018260600151612a189190613a8d565b1115612a2b576000809250925050612a68565b6020810151612a5088612a3f896008613aa4565b6060850151608086015189516134ed565b14612a62576000809250925050612a68565b60019250505b94509492505050565b606081612ab157505060408051808201909152600181527f3000000000000000000000000000000000000000000000000000000000000000602082015290565b8160005b8115612adb5780612ac581613abc565b9150612ad49050600a83613cbd565b9150612ab5565b60008167ffffffffffffffff811115612af657612af6613a61565b6040519080825280601f01601f191660200182016040528015612b20576020820181803683370190505b509050815b8515612bc557612b36600182613a8d565b90506000612b45600a88613cbd565b612b5090600a613b59565b612b5a9088613a8d565b612b65906030613cd1565b905060008160f81b905080848481518110612b8257612b82613a4b565b60200101907effffffffffffffffffffffffffffffffffffffffffffffffffffffffffffff1916908160001a905350612bbc600a89613cbd565b97505050612b25565b50949350505050565b6000612bdb600883613aa4565b90508251811115612beb57600080fd5b8160208401015160c01c6020028101905082518111156116ca57600080fd5b6000612c168383612bce565b90506000612c2484836121ad565b9250905060005b8181101561175657612c3d8584613535565b925080612c4981613abc565b915050612c2b565b6000612c5d83836135a0565b9050612c6983826118a9565b9050612c75838261222e565b9050612c8183826135ad565b90506000612c8f848361175e565b9250905060005b8181101561175657612ca885846135ad565b925080612cb481613abc565b915050612c96565b60608351600214612d0f5760405162461bcd60e51b815260206004820152601a60248201527f78206c656e677468206973206e6f7420657175616c20746f20320000000000006044820152606401610207565b8251600214612d605760405162461bcd60e51b815260206004820152601b60248201527f6678206c656e677468206973206e6f7420657175616c20746f203200000000006044820152606401610207565b6000612dc18386600081518110612d7957612d79613a4b565b602002602001015185612d8c9190613a8d565b87600181518110612d9f57612d9f613a4b565b6020026020010151612db19190613aa4565b612dbb9190613b45565b84613270565b604080516002808252606082018352929350919060208301908036833701905050915082602085015184036040860151088382820990508360208701518209840384816020880151086020850152506040830152509392505050565b6040805160038082526080820190925260609160009190602082018480368337019050509050835185511015612e66578451602082015283516040820152836060820152612e7b565b83516020820152845160408201528460608201525b80600181518110612e8e57612e8e613a4b565b602002602001015167ffffffffffffffff811115612eae57612eae613a61565b604051908082528060200260200182016040528015612ed7578160200160208202803683370190505b50915060005b60208083015102811015612f0d578381602087010151826020890101510881602085010152602081019050612edd565b50602080820151025b6020604083015102811015611902576060820151810160209081015184830182015201612f16565b60006020821115612f4e57600080fd5b82516040805160208101929092520160408051601f1981840301815291905280516020909101208352612f82826008613b59565b612f8e90610100613a8d565b612f99836008613b59565b612fa590610100613a8d565b6001612fb2856008613b59565b6001901b612fc09190613a8d565b8551911b16901c905092915050565b6000806001815b86518110156130095784856020830260208a0101518409840892508486830991508061300181613abc565b915050612fd6565b509095945050505050565b6000808351831061302457600080fd5b6040805160808101825260008082526020820181905291810182905260608101919091528385516130559190613a8d565b602082015261306660486008613aa4565b6130709083613aa4565b9150806020015182111561308357600080fd5b6068858501015160c01c600281146130a057600160005260206000fd5b80602002830192505080602001518211156130ba57600080fd5b6130cd856130c88487613aa4565b6135da565b6130d79083613aa4565b60208201519092506130ea836008613aa4565b11156130f557600080fd5b83820185016020015160c01c6002811461311457600160005260206000fd5b50613120600883613aa4565b915060005b60028110156131945760706020820286018701015182526131518661314a8588613aa4565b84516132a8565b60408401521515606083018190526131715760008093509350505061319b565b60408201516131809084613aa4565b92508061318c81613abc565b915050613125565b5060019250505b9250929050565b607060208402860187010151846116985760008085613200576131ce8460a00151868660000151612fcf565b84516131da9190613a8d565b91506131f96131f28560c00151878760000151612fcf565b8551613270565b905061325b565b856001141561325b576132288460a001518686600001516132219190613a8d565b8651612fcf565b84516132349190613a8d565b91506132586131f28560c001518787600001516132519190613a8d565b8751612fcf565b90505b83518181848608099998505050505050505050565b60006118c183613281600285613a8d565b84611dec565b6000818583848a86038708858a878a89038c08090908979650505050505050565b600080845184106132b857600080fd5b60008486516132c79190613a8d565b905080603811156132d757600080fd5b848601603081015160509091015160c01c6132f3816038613b59565b6132fe906038613aa4565b93508284111561330d57600080fd5b600061331a886038613aa4565b60288a82010151600089815291925060c01c808015613340576001811461334d57613356565b6020600020602052613356565b60206000206000525b505060005b613366600185613a8d565b81101561345257613378816038613b59565b6133838b6038613aa4565b61338d9190613aa4565b925061339a836020613aa4565b6133a5906018613aa4565b838c01602881015160609091015191935060c090811c91901c8180156133d257600181146134095761343c565b8d8501516000528180156133ed57600181146133fa57613403565b6040600020602052613403565b60406000206000525b5061343c565b8d85015160205281801561342457600181146134315761343a565b604060002060205261343a565b60406000206000525b505b505050808061344a90613abc565b91505061335b565b5061345e600184613a8d565b613469906038613b59565b6134748a6038613aa4565b61347e9190613aa4565b915061348b826020613aa4565b613496906018613aa4565b60288b8401015190915060c01c8080156134b757600181146134ca576134d9565b828c0151600052604060002099506134d9565b828c0151602052604060002099505b505083881496505050505050935093915050565b6000806001815b86811015613528578485602083028a60208d010101518409840892508486830991508061352081613abc565b9150506134f4565b5090979650505050505050565b6000613541838361170f565b905061354d83826116a2565b90506135598382612bce565b9050613565838261368f565b9050600061357384836121ad565b9250905060005b818110156117565761358c858461368f565b92508061359881613abc565b91505061357a565b60006118c1826020613aa4565b6050828201015160009060c01c6135c5816038613b59565b6135d0603885613aa4565b6119299190613aa4565b6000825182106135e957600080fd5b60008284516135f89190613a8d565b905080603811156136345760405162461bcd60e51b8152600401610207906020808252600490820152636865726560e01b604082015260600190565b6050848401015160c01c613649816038613b59565b613654906038613aa4565b9250818311156117565760405162461bcd60e51b8152600401610207906020808252600490820152636865726560e01b604082015260600190565b60008251821061369e57600080fd5b8183516136ab9190613a8d565b603811156136fb5760405162461bcd60e51b815260206004820152601460248201527f736b69705f6d65726b6c655f70726f6f665f62650000000000000000000000006044820152606401610207565b6050838301015160c01c613710816038613b59565b61371b603885613aa4565b6137259190613aa4565b915083518211156137785760405162461bcd60e51b815260206004820152601460248201527f736b69705f6d65726b6c655f70726f6f665f62650000000000000000000000006044820152606401610207565b5092915050565b8280548282559060005260206000209081019282156137ba579160200282015b828111156137ba57823582559160200191906001019061379f565b506137c6929150613823565b5090565b828054828255906000526020600020908101928215613817579160200282015b828111156138175782518051613807918491602090910190613838565b50916020019190600101906137ea565b506137c6929150613873565b5b808211156137c65760008155600101613824565b8280548282559060005260206000209081019282156137ba579160200282015b828111156137ba578251825591602001919060010190613858565b808211156137c65760006138878282613890565b50600101613873565b50805460008255906000526020600020908101906138ae9190613823565b50565b60008083601f8401126138c357600080fd5b50813567ffffffffffffffff8111156138db57600080fd5b6020830191508360208260051b850101111561319b57600080fd5b6000806020838503121561390957600080fd5b823567ffffffffffffffff81111561392057600080fd5b61392c858286016138b1565b90969095509350505050565b60008060006040848603121561394d57600080fd5b833567ffffffffffffffff81111561396457600080fd5b613970868287016138b1565b909790965060209590950135949350505050565b6000806020838503121561399757600080fd5b823567ffffffffffffffff808211156139af57600080fd5b818501915085601f8301126139c357600080fd5b8135818111156139d257600080fd5b8660208285010111156139e457600080fd5b60209290920196919550909350505050565b600080600080600080600080610100898b031215613a1357600080fd5b505086359860208801359850604088013597606081013597506080810135965060a0810135955060c0810135945060e0013592509050565b634e487b7160e01b600052603260045260246000fd5b634e487b7160e01b600052604160045260246000fd5b634e487b7160e01b600052601160045260246000fd5b600082821015613a9f57613a9f613a77565b500390565b60008219821115613ab757613ab7613a77565b500190565b6000600019821415613ad057613ad0613a77565b5060010190565b6000808212827f7fffffffffffffffffffffffffffffffffffffffffffffffffffffffffffffff03841381151615613b1157613b11613a77565b82600160ff1b038412811615613b2957613b29613a77565b50500190565b634e487b7160e01b600052601260045260246000fd5b600082613b5457613b54613b2f565b500690565b6000816000190483118215151615613b7357613b73613a77565b500290565b600060208083528351808285015260005b81811015613ba557858101830151858201604001528201613b89565b81811115613bb7576000604083870101525b50601f01601f1916929092016040019392505050565b600181815b80851115613c08578160001904821115613bee57613bee613a77565b80851615613bfb57918102915b93841c9390800290613bd2565b509250929050565b600082613c1f575060016116ca565b81613c2c575060006116ca565b8160018114613c425760028114613c4c57613c68565b60019150506116ca565b60ff841115613c5d57613c5d613a77565b50506001821b6116ca565b5060208310610133831016604e8410600b8410161715613c8b575081810a6116ca565b613c958383613bcd565b8060001904821115613ca957613ca9613a77565b029392505050565b60006118c18383613c10565b600082613ccc57613ccc613b2f565b500490565b600060ff821660ff84168060ff03821115613cee57613cee613a77565b01939250505056fea2646970667358221220e2e5e6315998c903a3ecccce5a2ffec87e5452b3b67d653601a5ad8380dc5d0764736f6c634300080c0033",
  "immutableReferences": {},
  "source": "// SPDX-License-Identifier: Apache-2.0.\n//---------------------------------------------------------------------------//\n// Copyright (c) 2022 Mikhail Komarov <nemo@nil.foundation>\n// Copyright (c) 2022 Ilias Khairullin <ilias@nil.foundation>\n//\n// Licensed under the Apache License, Version 2.0 (the \"License\");\n// you may not use this file except in compliance with the License.\n// You may obtain a copy of the License at\n//\n//    http://www.apache.org/licenses/LICENSE-2.0\n//\n// Unless required by applicable law or agreed to in writing, software\n// distributed under the License is distributed on an \"AS IS\" BASIS,\n// WITHOUT WARRANTIES OR CONDITIONS OF ANY KIND, either express or implied.\n// See the License for the specific language governing permissions and\n// limitations under the License.\n//---------------------------------------------------------------------------//\npragma solidity >=0.8.4;\n\nimport '../../types.sol';\nimport '../../cryptography/transcript.sol';\nimport '../proof_map_parser.sol';\nimport '../verifier_unified_addition_component.sol';\n\ncontract TestRedshiftVerifierUnifiedAddition {\n    types.lpc_params_type m_lpc_params;\n    types.redshift_common_data m_common_data;\n    bool m_result;\n\n    function set_initial_params(uint256 modulus, uint256 r, uint256 max_degree, uint256 lambda, uint256 m, uint256 rows_amount, uint256 omega, uint256 columns_number) public {\n        m_lpc_params.modulus = modulus;\n        m_lpc_params.lambda = lambda;\n        m_lpc_params.r = r;\n        m_lpc_params.m = m;\n\n        m_lpc_params.fri_params.modulus = modulus;\n        m_lpc_params.fri_params.r = r;\n        m_lpc_params.fri_params.max_degree = max_degree;\n\n        m_common_data.rows_amount = rows_amount;\n        m_common_data.omega = omega;\n        m_common_data.columns_rotations = new int256[][](columns_number);\n    }\n\n    function set_U(uint256[] calldata U) public {\n        m_lpc_params.fri_params.U = U;\n    }\n\n    function set_V(uint256[] calldata V) public {\n        m_lpc_params.fri_params.V = V;\n    }\n\n    function set_D_omegas(uint256[] calldata D_omegas) public {\n        m_lpc_params.fri_params.D_omegas = D_omegas;\n    }\n\n    function set_q(uint256[] calldata q) public {\n        m_lpc_params.fri_params.q = q;\n    }\n\n    function set_column_rotations(int256[] calldata rotations, uint256 i) public {\n        m_common_data.columns_rotations[i] = rotations;\n    }\n\n    function verify(bytes calldata blob) public {\n        (types.redshift_proof_map memory proof_map, uint256 proof_size) = redshift_proof_map_parser.parse_be(blob, 0);\n        require(proof_size == blob.length, \"Proof length was detected incorrectly!\");\n        bytes memory init_blob = hex\"\";\n        types.transcript_data memory tr_state;\n        transcript.init_transcript(tr_state, init_blob);\n        m_result = redshift_verifier_unified_addition_component.parse_verify_proof_be(blob, 0, tr_state, proof_map, m_lpc_params, m_common_data);\n        require(m_result, \"Proof is not correct!\");\n    }\n}\n",
  "sourcePath": "/Users/Zerg/Projects/evm-mina-verification/share/aux-proof-verify/contracts/redshift/test/public_api_redshift_unified_addition.sol",
  "compiler": {
    "name": "solc",
    "version": "0.8.12+commit.f00d7308.Emscripten.clang"
  },
  "schemaVersion": "3.4.6",
  "updatedAt": "2022-04-11T15:57:37.498Z",
  "networkType": "ethereum",
  "devdoc": {
    "kind": "dev",
    "methods": {},
    "version": 1
  },
  "userdoc": {
    "kind": "user",
    "methods": {},
    "version": 1
  }
}